{
  "contractName": "SecureExamPaper",
  "abi": [
    {
      "anonymous": false,
      "inputs": [
        {
          "indexed": true,
          "internalType": "uint256",
          "name": "paperId",
          "type": "uint256"
        },
        {
          "indexed": false,
          "internalType": "uint256",
          "name": "oldDateTime",
          "type": "uint256"
        },
        {
          "indexed": false,
          "internalType": "uint256",
          "name": "newDateTime",
          "type": "uint256"
        },
        {
          "indexed": false,
          "internalType": "uint256",
          "name": "updateTimestamp",
          "type": "uint256"
        }
      ],
      "name": "PaperRescheduled",
      "type": "event"
    },
    {
      "anonymous": false,
      "inputs": [
        {
          "indexed": true,
          "internalType": "uint256",
          "name": "paperId",
          "type": "uint256"
        },
        {
          "indexed": false,
          "internalType": "string",
          "name": "documentHash",
          "type": "string"
        },
        {
          "indexed": false,
          "internalType": "string",
          "name": "collegeId",
          "type": "string"
        },
        {
          "indexed": false,
          "internalType": "string",
          "name": "subjectCode",
          "type": "string"
        },
        {
          "indexed": false,
          "internalType": "uint256",
          "name": "examDateTime",
          "type": "uint256"
        },
        {
          "indexed": true,
          "internalType": "address",
          "name": "owner",
          "type": "address"
        }
      ],
      "name": "PaperStored",
      "type": "event"
    },
    {
      "anonymous": false,
      "inputs": [
        {
          "indexed": true,
          "internalType": "uint256",
          "name": "paperId",
          "type": "uint256"
        },
        {
          "indexed": true,
          "internalType": "address",
          "name": "verifier",
          "type": "address"
        },
        {
          "indexed": false,
          "internalType": "uint256",
          "name": "timestamp",
          "type": "uint256"
        }
      ],
      "name": "PaperVerified",
      "type": "event"
    },
    {
      "inputs": [],
      "name": "paperCount",
      "outputs": [
        {
          "internalType": "uint256",
          "name": "",
          "type": "uint256"
        }
      ],
      "stateMutability": "view",
      "type": "function",
      "constant": true
    },
    {
      "inputs": [
        {
          "internalType": "uint256",
          "name": "",
          "type": "uint256"
        }
      ],
      "name": "papers",
      "outputs": [
        {
          "internalType": "string",
          "name": "collegeId",
          "type": "string"
        },
        {
          "internalType": "string",
          "name": "subjectCode",
          "type": "string"
        },
        {
          "internalType": "string",
          "name": "documentHash",
          "type": "string"
        },
        {
          "internalType": "uint256",
          "name": "timestamp",
          "type": "uint256"
        },
        {
          "internalType": "address",
          "name": "owner",
          "type": "address"
        },
        {
          "internalType": "bool",
          "name": "verified",
          "type": "bool"
        },
        {
          "internalType": "uint256",
          "name": "examDateTime",
          "type": "uint256"
        },
        {
          "internalType": "string",
          "name": "encryptedAESKey",
          "type": "string"
        },
        {
          "internalType": "string",
          "name": "principalEmail",
          "type": "string"
        }
      ],
      "stateMutability": "view",
      "type": "function",
      "constant": true
    },
    {
      "inputs": [
        {
          "internalType": "string",
          "name": "_collegeId",
          "type": "string"
        },
        {
          "internalType": "string",
          "name": "_subjectCode",
          "type": "string"
        },
        {
          "internalType": "string",
          "name": "_documentHash",
          "type": "string"
        },
        {
          "internalType": "uint256",
          "name": "_examDateTime",
          "type": "uint256"
        },
        {
          "internalType": "string",
          "name": "_encryptedAESKey",
          "type": "string"
        },
        {
          "internalType": "string",
          "name": "_principalEmail",
          "type": "string"
        }
      ],
      "name": "storePaper",
      "outputs": [
        {
          "internalType": "uint256",
          "name": "",
          "type": "uint256"
        }
      ],
      "stateMutability": "nonpayable",
      "type": "function"
    },
    {
      "inputs": [
        {
          "internalType": "uint256",
          "name": "_paperId",
          "type": "uint256"
        }
      ],
      "name": "getPaper",
      "outputs": [
        {
          "internalType": "string",
          "name": "collegeId",
          "type": "string"
        },
        {
          "internalType": "string",
          "name": "subjectCode",
          "type": "string"
        },
        {
          "internalType": "string",
          "name": "documentHash",
          "type": "string"
        },
        {
          "internalType": "uint256",
          "name": "timestamp",
          "type": "uint256"
        },
        {
          "internalType": "address",
          "name": "owner",
          "type": "address"
        },
        {
          "internalType": "bool",
          "name": "verified",
          "type": "bool"
        },
        {
          "internalType": "uint256",
          "name": "examDateTime",
          "type": "uint256"
        },
        {
          "internalType": "string",
          "name": "encryptedAESKey",
          "type": "string"
        },
        {
          "internalType": "string",
          "name": "principalEmail",
          "type": "string"
        }
      ],
      "stateMutability": "view",
      "type": "function",
      "constant": true
    },
    {
      "inputs": [
        {
          "internalType": "uint256",
          "name": "_paperId",
          "type": "uint256"
        }
      ],
      "name": "verifyPaper",
      "outputs": [],
      "stateMutability": "nonpayable",
      "type": "function"
    },
    {
      "inputs": [
        {
          "internalType": "uint256",
          "name": "_paperId",
          "type": "uint256"
        },
        {
          "internalType": "uint256",
          "name": "_newExamDateTime",
          "type": "uint256"
        }
      ],
      "name": "rescheduleExam",
      "outputs": [],
      "stateMutability": "nonpayable",
      "type": "function"
    },
    {
      "inputs": [
        {
          "internalType": "uint256",
          "name": "_paperId",
          "type": "uint256"
        }
      ],
      "name": "isExamTimeReached",
      "outputs": [
        {
          "internalType": "bool",
          "name": "",
          "type": "bool"
        }
      ],
      "stateMutability": "view",
      "type": "function",
      "constant": true
    },
    {
      "inputs": [],
      "name": "getTotalPapers",
      "outputs": [
        {
          "internalType": "uint256",
          "name": "",
          "type": "uint256"
        }
      ],
      "stateMutability": "view",
      "type": "function",
      "constant": true
    },
    {
      "inputs": [
        {
          "internalType": "string",
          "name": "_documentHash",
          "type": "string"
        }
      ],
      "name": "doesHashExist",
      "outputs": [
        {
          "internalType": "bool",
          "name": "",
          "type": "bool"
        }
      ],
      "stateMutability": "view",
      "type": "function",
      "constant": true
    }
  ],
  "bytecode": "0x6080604052600060015534801561001557600080fd5b50611483806100256000396000f3fe608060405234801561001057600080fd5b50600436106100935760003560e01c806361b641581161006657806361b64158146101105780636eddf32314610131578063a56c2cb914610139578063bbe6a34d14610142578063d3ef7f671461015557600080fd5b8063055a9be81461009857806305f59439146100ad57806307993f04146100d55780635e775a27146100fd575b600080fd5b6100ab6100a6366004610f6d565b610168565b005b6100c06100bb366004611029565b610264565b60405190151581526020015b60405180910390f35b6100e86100e3366004610f6d565b61028f565b6040516100cc999897969594939291906110b6565b6100e861010b366004610f6d565b61064a565b61012361011e366004611150565b61094b565b6040519081526020016100cc565b600154610123565b61012360015481565b6100ab61015036600461122a565b610d48565b6100c0610163366004610f6d565b610f25565b60008111801561017a57506001548111155b61019f5760405162461bcd60e51b81526004016101969061124c565b60405180910390fd5b600081815260208190526040902060040154600160a01b900460ff16156102015760405162461bcd60e51b815260206004820152601660248201527514185c195c88185b1c9958591e481d995c9a599a595960521b6044820152606401610196565b60008181526020819052604090819020600401805460ff60a01b1916600160a01b17905551339082907f505fb8a09d292e96afcaa7c15eaf4f15d36dafdf31fd8ee565331d089552f5d6906102599042815260200190565b60405180910390a350565b60006002826040516102769190611276565b9081526040519081900360200190205460ff1692915050565b606080606060008060008060608060008a1180156102af57506001548a11155b6102cb5760405162461bcd60e51b81526004016101969061124c565b60008a815260208190526040808220815161012081019092528054829082906102f390611292565b80601f016020809104026020016040519081016040528092919081815260200182805461031f90611292565b801561036c5780601f106103415761010080835404028352916020019161036c565b820191906000526020600020905b81548152906001019060200180831161034f57829003601f168201915b5050505050815260200160018201805461038590611292565b80601f01602080910402602001604051908101604052809291908181526020018280546103b190611292565b80156103fe5780601f106103d3576101008083540402835291602001916103fe565b820191906000526020600020905b8154815290600101906020018083116103e157829003601f168201915b5050505050815260200160028201805461041790611292565b80601f016020809104026020016040519081016040528092919081815260200182805461044390611292565b80156104905780601f1061046557610100808354040283529160200191610490565b820191906000526020600020905b81548152906001019060200180831161047357829003601f168201915b50505091835250506003820154602082015260048201546001600160a01b0381166040830152600160a01b900460ff16151560608201526005820154608082015260068201805460a0909201916104e690611292565b80601f016020809104026020016040519081016040528092919081815260200182805461051290611292565b801561055f5780601f106105345761010080835404028352916020019161055f565b820191906000526020600020905b81548152906001019060200180831161054257829003601f168201915b5050505050815260200160078201805461057890611292565b80601f01602080910402602001604051908101604052809291908181526020018280546105a490611292565b80156105f15780601f106105c6576101008083540402835291602001916105f1565b820191906000526020600020905b8154815290600101906020018083116105d457829003601f168201915b5050505050815250509050806000015181602001518260400151836060015184608001518560a001518660c001518760e00151886101000151995099509950995099509950995099509950509193959799909294969850565b60006020819052908152604090208054819061066590611292565b80601f016020809104026020016040519081016040528092919081815260200182805461069190611292565b80156106de5780601f106106b3576101008083540402835291602001916106de565b820191906000526020600020905b8154815290600101906020018083116106c157829003601f168201915b5050505050908060010180546106f390611292565b80601f016020809104026020016040519081016040528092919081815260200182805461071f90611292565b801561076c5780601f106107415761010080835404028352916020019161076c565b820191906000526020600020905b81548152906001019060200180831161074f57829003601f168201915b50505050509080600201805461078190611292565b80601f01602080910402602001604051908101604052809291908181526020018280546107ad90611292565b80156107fa5780601f106107cf576101008083540402835291602001916107fa565b820191906000526020600020905b8154815290600101906020018083116107dd57829003601f168201915b50505050600383015460048401546005850154600686018054959693956001600160a01b0384169550600160a01b90930460ff1693919261083a90611292565b80601f016020809104026020016040519081016040528092919081815260200182805461086690611292565b80156108b35780601f10610888576101008083540402835291602001916108b3565b820191906000526020600020905b81548152906001019060200180831161089657829003601f168201915b5050505050908060070180546108c890611292565b80601f01602080910402602001604051908101604052809291908181526020018280546108f490611292565b80156109415780601f1061091657610100808354040283529160200191610941565b820191906000526020600020905b81548152906001019060200180831161092457829003601f168201915b5050505050905089565b60008087511161099d5760405162461bcd60e51b815260206004820152601a60248201527f436f6c6c6567652049442063616e6e6f7420626520656d7074790000000000006044820152606401610196565b60008651116109ee5760405162461bcd60e51b815260206004820152601c60248201527f5375626a65637420636f64652063616e6e6f7420626520656d707479000000006044820152606401610196565b6000855111610a3f5760405162461bcd60e51b815260206004820152601d60248201527f446f63756d656e7420686173682063616e6e6f7420626520656d7074790000006044820152606401610196565b428411610a8e5760405162461bcd60e51b815260206004820152601f60248201527f4578616d2064617465206d75737420626520696e2074686520667574757265006044820152606401610196565b6000835111610ae95760405162461bcd60e51b815260206004820152602160248201527f456e6372797074656420414553206b65792063616e6e6f7420626520656d70746044820152607960f81b6064820152608401610196565b6000825111610b3a5760405162461bcd60e51b815260206004820152601f60248201527f5072696e636970616c20656d61696c2063616e6e6f7420626520656d707479006044820152606401610196565b600285604051610b4a9190611276565b9081526040519081900360200190205460ff1615610baa5760405162461bcd60e51b815260206004820152601c60248201527f446f63756d656e74206861736820616c726561647920657869737473000000006044820152606401610196565b60018054906000610bba836112cc565b909155505060408051610120810182528881526020808201899052818301889052426060830152336080830152600060a0830181905260c0830188905260e0830187905261010083018690526001548152908190529190912081518190610c219082611342565b5060208201516001820190610c369082611342565b5060408201516002820190610c4b9082611342565b5060608201516003820155608082015160048201805460a08501511515600160a01b026001600160a81b03199091166001600160a01b039093169290921791909117905560c0820151600582015560e08201516006820190610cad9082611342565b506101008201516007820190610cc39082611342565b509050506001600286604051610cd99190611276565b908152604051908190036020018120805492151560ff199093169290921790915560015433917f48679a5c7f7501de182590aceec88913b2d542af23b8270582eb3e9e7b2acb5790610d329089908c908c908b90611402565b60405180910390a3506001549695505050505050565b600082118015610d5a57506001548211155b610d765760405162461bcd60e51b81526004016101969061124c565b6000828152602081905260409020600401546001600160a01b03163314610deb5760405162461bcd60e51b815260206004820152602360248201527f4f6e6c7920746865207061706572206f776e65722063616e2072657363686564604482015262756c6560e81b6064820152608401610196565b600082815260208190526040902060040154600160a01b900460ff1615610e6d5760405162461bcd60e51b815260206004820152603060248201527f43616e6e6f742072657363686564756c6520616674657220706170657220697360448201526f081d995c9a599a59590bdbdc195b995960821b6064820152608401610196565b428111610ec85760405162461bcd60e51b815260206004820152602360248201527f4e6577206578616d2064617465206d75737420626520696e207468652066757460448201526275726560e81b6064820152608401610196565b6000828152602081815260409182902060050180549084905582518181529182018490524282840152915184917f7c166eaccd3ade38fe4ade4350d3dda13e05647e5bb16af6de95aae7cccaa467919081900360600190a2505050565b60008082118015610f3857506001548211155b610f545760405162461bcd60e51b81526004016101969061124c565b5060009081526020819052604090206005015442101590565b600060208284031215610f7f57600080fd5b5035919050565b634e487b7160e01b600052604160045260246000fd5b600082601f830112610fad57600080fd5b813567ffffffffffffffff80821115610fc857610fc8610f86565b604051601f8301601f19908116603f01168101908282118183101715610ff057610ff0610f86565b8160405283815286602085880101111561100957600080fd5b836020870160208301376000602085830101528094505050505092915050565b60006020828403121561103b57600080fd5b813567ffffffffffffffff81111561105257600080fd5b61105e84828501610f9c565b949350505050565b60005b83811015611081578181015183820152602001611069565b50506000910152565b600081518084526110a2816020860160208601611066565b601f01601f19169290920160200192915050565b60006101208083526110ca8184018d61108a565b905082810360208401526110de818c61108a565b905082810360408401526110f2818b61108a565b606084018a90526001600160a01b038916608085015287151560a085015260c0840187905283810360e0850152905061112b818661108a565b9050828103610100840152611140818561108a565b9c9b505050505050505050505050565b60008060008060008060c0878903121561116957600080fd5b863567ffffffffffffffff8082111561118157600080fd5b61118d8a838b01610f9c565b975060208901359150808211156111a357600080fd5b6111af8a838b01610f9c565b965060408901359150808211156111c557600080fd5b6111d18a838b01610f9c565b95506060890135945060808901359150808211156111ee57600080fd5b6111fa8a838b01610f9c565b935060a089013591508082111561121057600080fd5b5061121d89828a01610f9c565b9150509295509295509295565b6000806040838503121561123d57600080fd5b50508035926020909101359150565b60208082526010908201526f125b9d985b1a59081c185c195c88125160821b604082015260600190565b60008251611288818460208701611066565b9190910192915050565b600181811c908216806112a657607f821691505b6020821081036112c657634e487b7160e01b600052602260045260246000fd5b50919050565b6000600182016112ec57634e487b7160e01b600052601160045260246000fd5b5060010190565b601f82111561133d57600081815260208120601f850160051c8101602086101561131a5750805b601f850160051c820191505b8181101561133957828155600101611326565b5050505b505050565b815167ffffffffffffffff81111561135c5761135c610f86565b6113708161136a8454611292565b846112f3565b602080601f8311600181146113a5576000841561138d5750858301515b600019600386901b1c1916600185901b178555611339565b600085815260208120601f198616915b828110156113d4578886015182559484019460019091019084016113b5565b50858210156113f25787850151600019600388901b60f8161c191681555b5050505050600190811b01905550565b608081526000611415608083018761108a565b8281036020840152611427818761108a565b9050828103604084015261143b818661108a565b9150508260608301529594505050505056fea26469706673582212209fef243d19fbead306a1514b1a5362cfc60ab49b39ae497b22fc32a9d0c0b55f64736f6c63430008130033",
  "immutableReferences": {},
  "source": "// SPDX-License-Identifier: MIT\npragma solidity ^0.8.0;\n\n/**\n * @title SecureExamPaper\n * @dev Smart contract for secure exam paper storage with encryption and time-lock\n */\ncontract SecureExamPaper {\n    \n    // Struct to store exam paper metadata\n    struct ExamPaper {\n        string collegeId;           // College identifier\n        string subjectCode;         // Subject code\n        string documentHash;        // SHA-256 hash of encrypted document\n        uint256 timestamp;          // Upload timestamp\n        address owner;              // Admin who uploaded\n        bool verified;              // Verification status\n        uint256 examDateTime;       // Scheduled exam date/time (Unix timestamp)\n        string encryptedAESKey;     // RSA-encrypted AES key\n        string principalEmail;      // Principal's email\n    }\n    \n    // Mapping from paper ID to ExamPaper\n    mapping(uint256 => ExamPaper) public papers;\n    \n    // Auto-incrementing paper ID counter\n    uint256 public paperCount = 0;\n    \n    // Mapping to prevent duplicate hashes\n    mapping(string => bool) private hashExists;\n    \n    // Events for tracking\n    event PaperStored(\n        uint256 indexed paperId,\n        string documentHash,\n        string collegeId,\n        string subjectCode,\n        uint256 examDateTime,\n        address indexed owner\n    );\n    \n    event PaperVerified(\n        uint256 indexed paperId,\n        address indexed verifier,\n        uint256 timestamp\n    );\n    \n    event PaperRescheduled(\n        uint256 indexed paperId,\n        uint256 oldDateTime,\n        uint256 newDateTime,\n        uint256 updateTimestamp\n    );\n    \n    /**\n     * @dev Store a new exam paper on the blockchain\n     * @param _collegeId College identifier\n     * @param _subjectCode Subject code\n     * @param _documentHash SHA-256 hash of the encrypted document\n     * @param _examDateTime Scheduled exam date/time\n     * @param _encryptedAESKey RSA-encrypted AES key\n     * @param _principalEmail Principal's email address\n     * @return paperId The ID of the stored paper\n     */\n    function storePaper(\n        string memory _collegeId,\n        string memory _subjectCode,\n        string memory _documentHash,\n        uint256 _examDateTime,\n        string memory _encryptedAESKey,\n        string memory _principalEmail\n    ) public returns (uint256) {\n        // Validate inputs\n        require(bytes(_collegeId).length > 0, \"College ID cannot be empty\");\n        require(bytes(_subjectCode).length > 0, \"Subject code cannot be empty\");\n        require(bytes(_documentHash).length > 0, \"Document hash cannot be empty\");\n        require(_examDateTime > block.timestamp, \"Exam date must be in the future\");\n        require(bytes(_encryptedAESKey).length > 0, \"Encrypted AES key cannot be empty\");\n        require(bytes(_principalEmail).length > 0, \"Principal email cannot be empty\");\n        \n        // Check for duplicate hash\n        require(!hashExists[_documentHash], \"Document hash already exists\");\n        \n        // Increment paper count\n        paperCount++;\n        \n        // Create new exam paper\n        papers[paperCount] = ExamPaper({\n            collegeId: _collegeId,\n            subjectCode: _subjectCode,\n            documentHash: _documentHash,\n            timestamp: block.timestamp,\n            owner: msg.sender,\n            verified: false,\n            examDateTime: _examDateTime,\n            encryptedAESKey: _encryptedAESKey,\n            principalEmail: _principalEmail\n        });\n        \n        // Mark hash as used\n        hashExists[_documentHash] = true;\n        \n        // Emit event\n        emit PaperStored(\n            paperCount,\n            _documentHash,\n            _collegeId,\n            _subjectCode,\n            _examDateTime,\n            msg.sender\n        );\n        \n        return paperCount;\n    }\n    \n    /**\n     * @dev Get exam paper details by ID\n     * @param _paperId The ID of the paper to retrieve\n     * @return collegeId College identifier\n     * @return subjectCode Subject code\n     * @return documentHash Document hash\n     * @return timestamp Upload timestamp\n     * @return owner Owner address\n     * @return verified Verification status\n     * @return examDateTime Exam date/time\n     * @return encryptedAESKey Encrypted AES key\n     * @return principalEmail Principal email\n     */\n    function getPaper(uint256 _paperId) public view returns (\n        string memory collegeId,\n        string memory subjectCode,\n        string memory documentHash,\n        uint256 timestamp,\n        address owner,\n        bool verified,\n        uint256 examDateTime,\n        string memory encryptedAESKey,\n        string memory principalEmail\n    ) {\n        require(_paperId > 0 && _paperId <= paperCount, \"Invalid paper ID\");\n        \n        ExamPaper memory paper = papers[_paperId];\n        \n        return (\n            paper.collegeId,\n            paper.subjectCode,\n            paper.documentHash,\n            paper.timestamp,\n            paper.owner,\n            paper.verified,\n            paper.examDateTime,\n            paper.encryptedAESKey,\n            paper.principalEmail\n        );\n    }\n    \n    /**\n     * @dev Verify a paper (called after successful decryption and validation)\n     * @param _paperId The ID of the paper to verify\n     */\n    function verifyPaper(uint256 _paperId) public {\n        require(_paperId > 0 && _paperId <= paperCount, \"Invalid paper ID\");\n        require(!papers[_paperId].verified, \"Paper already verified\");\n        \n        papers[_paperId].verified = true;\n        \n        emit PaperVerified(_paperId, msg.sender, block.timestamp);\n    }\n    \n    /**\n     * @dev Reschedule an exam by updating the examDateTime\n     * @param _paperId The ID of the paper to reschedule\n     * @param _newExamDateTime The new scheduled exam date/time\n     */\n    function rescheduleExam(uint256 _paperId, uint256 _newExamDateTime) public {\n        require(_paperId > 0 && _paperId <= paperCount, \"Invalid paper ID\");\n        require(msg.sender == papers[_paperId].owner, \"Only the paper owner can reschedule\");\n        require(!papers[_paperId].verified, \"Cannot reschedule after paper is verified/opened\");\n        require(_newExamDateTime > block.timestamp, \"New exam date must be in the future\");\n        \n        uint256 oldDateTime = papers[_paperId].examDateTime;\n        papers[_paperId].examDateTime = _newExamDateTime;\n        \n        emit PaperRescheduled(_paperId, oldDateTime, _newExamDateTime, block.timestamp);\n    }\n    \n    /**\n     * @dev Check if exam time has arrived (time-lock mechanism)\n     * @param _paperId The ID of the paper to check\n     * @return bool True if exam time has arrived\n     */\n    function isExamTimeReached(uint256 _paperId) public view returns (bool) {\n        require(_paperId > 0 && _paperId <= paperCount, \"Invalid paper ID\");\n        return block.timestamp >= papers[_paperId].examDateTime;\n    }\n    \n    /**\n     * @dev Get the total number of papers stored\n     * @return uint256 Total paper count\n     */\n    function getTotalPapers() public view returns (uint256) {\n        return paperCount;\n    }\n    \n    /**\n     * @dev Check if a document hash already exists\n     * @param _documentHash The hash to check\n     * @return bool True if hash exists\n     */\n    function doesHashExist(string memory _documentHash) public view returns (bool) {\n        return hashExists[_documentHash];\n    }\n}\n",
  "sourcePath": "/home/thaimozhi2005/exam paper blockchain/blockchain/contracts/SecureExamPaper.sol",
  "compiler": {
    "name": "solc",
    "version": "0.8.19+commit.7dd6d404.Emscripten.clang"
  },
  "schemaVersion": "3.4.16",
  "updatedAt": "2026-03-20T14:09:43.003Z",
  "networkType": "ethereum",
  "devdoc": {
    "details": "Smart contract for secure exam paper storage with encryption and time-lock",
    "kind": "dev",
    "methods": {
      "doesHashExist(string)": {
        "details": "Check if a document hash already exists",
        "params": {
          "_documentHash": "The hash to check"
        },
        "returns": {
          "_0": "bool True if hash exists"
        }
      },
      "getPaper(uint256)": {
        "details": "Get exam paper details by ID",
        "params": {
          "_paperId": "The ID of the paper to retrieve"
        },
        "returns": {
          "collegeId": "College identifier",
          "documentHash": "Document hash",
          "encryptedAESKey": "Encrypted AES key",
          "examDateTime": "Exam date/time",
          "owner": "Owner address",
          "principalEmail": "Principal email",
          "subjectCode": "Subject code",
          "timestamp": "Upload timestamp",
          "verified": "Verification status"
        }
      },
      "getTotalPapers()": {
        "details": "Get the total number of papers stored",
        "returns": {
          "_0": "uint256 Total paper count"
        }
      },
      "isExamTimeReached(uint256)": {
        "details": "Check if exam time has arrived (time-lock mechanism)",
        "params": {
          "_paperId": "The ID of the paper to check"
        },
        "returns": {
          "_0": "bool True if exam time has arrived"
        }
      },
      "rescheduleExam(uint256,uint256)": {
        "details": "Reschedule an exam by updating the examDateTime",
        "params": {
          "_newExamDateTime": "The new scheduled exam date/time",
          "_paperId": "The ID of the paper to reschedule"
        }
      },
      "storePaper(string,string,string,uint256,string,string)": {
        "details": "Store a new exam paper on the blockchain",
        "params": {
          "_collegeId": "College identifier",
          "_documentHash": "SHA-256 hash of the encrypted document",
          "_encryptedAESKey": "RSA-encrypted AES key",
          "_examDateTime": "Scheduled exam date/time",
          "_principalEmail": "Principal's email address",
          "_subjectCode": "Subject code"
        },
        "returns": {
          "_0": "paperId The ID of the stored paper"
        }
      },
      "verifyPaper(uint256)": {
        "details": "Verify a paper (called after successful decryption and validation)",
        "params": {
          "_paperId": "The ID of the paper to verify"
        }
      }
    },
    "title": "SecureExamPaper",
    "version": 1
  },
  "userdoc": {
    "kind": "user",
    "methods": {},
    "version": 1
  }
}