{
  "contractName": "SecureExamPaper",
  "abi": [
    {
      "anonymous": false,
      "inputs": [
        {
          "indexed": true,
          "internalType": "uint256",
          "name": "paperId",
          "type": "uint256"
        },
        {
          "indexed": false,
          "internalType": "string",
          "name": "documentHash",
          "type": "string"
        },
        {
          "indexed": false,
          "internalType": "string",
          "name": "collegeId",
          "type": "string"
        },
        {
          "indexed": false,
          "internalType": "string",
          "name": "subjectCode",
          "type": "string"
        },
        {
          "indexed": false,
          "internalType": "uint256",
          "name": "examDateTime",
          "type": "uint256"
        },
        {
          "indexed": true,
          "internalType": "address",
          "name": "owner",
          "type": "address"
        }
      ],
      "name": "PaperStored",
      "type": "event"
    },
    {
      "anonymous": false,
      "inputs": [
        {
          "indexed": true,
          "internalType": "uint256",
          "name": "paperId",
          "type": "uint256"
        },
        {
          "indexed": true,
          "internalType": "address",
          "name": "verifier",
          "type": "address"
        },
        {
          "indexed": false,
          "internalType": "uint256",
          "name": "timestamp",
          "type": "uint256"
        }
      ],
      "name": "PaperVerified",
      "type": "event"
    },
    {
      "inputs": [],
      "name": "paperCount",
      "outputs": [
        {
          "internalType": "uint256",
          "name": "",
          "type": "uint256"
        }
      ],
      "stateMutability": "view",
      "type": "function",
      "constant": true
    },
    {
      "inputs": [
        {
          "internalType": "uint256",
          "name": "",
          "type": "uint256"
        }
      ],
      "name": "papers",
      "outputs": [
        {
          "internalType": "string",
          "name": "collegeId",
          "type": "string"
        },
        {
          "internalType": "string",
          "name": "subjectCode",
          "type": "string"
        },
        {
          "internalType": "string",
          "name": "documentHash",
          "type": "string"
        },
        {
          "internalType": "uint256",
          "name": "timestamp",
          "type": "uint256"
        },
        {
          "internalType": "address",
          "name": "owner",
          "type": "address"
        },
        {
          "internalType": "bool",
          "name": "verified",
          "type": "bool"
        },
        {
          "internalType": "uint256",
          "name": "examDateTime",
          "type": "uint256"
        },
        {
          "internalType": "string",
          "name": "encryptedAESKey",
          "type": "string"
        },
        {
          "internalType": "string",
          "name": "principalEmail",
          "type": "string"
        }
      ],
      "stateMutability": "view",
      "type": "function",
      "constant": true
    },
    {
      "inputs": [
        {
          "internalType": "string",
          "name": "_collegeId",
          "type": "string"
        },
        {
          "internalType": "string",
          "name": "_subjectCode",
          "type": "string"
        },
        {
          "internalType": "string",
          "name": "_documentHash",
          "type": "string"
        },
        {
          "internalType": "uint256",
          "name": "_examDateTime",
          "type": "uint256"
        },
        {
          "internalType": "string",
          "name": "_encryptedAESKey",
          "type": "string"
        },
        {
          "internalType": "string",
          "name": "_principalEmail",
          "type": "string"
        }
      ],
      "name": "storePaper",
      "outputs": [
        {
          "internalType": "uint256",
          "name": "",
          "type": "uint256"
        }
      ],
      "stateMutability": "nonpayable",
      "type": "function"
    },
    {
      "inputs": [
        {
          "internalType": "uint256",
          "name": "_paperId",
          "type": "uint256"
        }
      ],
      "name": "getPaper",
      "outputs": [
        {
          "internalType": "string",
          "name": "collegeId",
          "type": "string"
        },
        {
          "internalType": "string",
          "name": "subjectCode",
          "type": "string"
        },
        {
          "internalType": "string",
          "name": "documentHash",
          "type": "string"
        },
        {
          "internalType": "uint256",
          "name": "timestamp",
          "type": "uint256"
        },
        {
          "internalType": "address",
          "name": "owner",
          "type": "address"
        },
        {
          "internalType": "bool",
          "name": "verified",
          "type": "bool"
        },
        {
          "internalType": "uint256",
          "name": "examDateTime",
          "type": "uint256"
        },
        {
          "internalType": "string",
          "name": "encryptedAESKey",
          "type": "string"
        },
        {
          "internalType": "string",
          "name": "principalEmail",
          "type": "string"
        }
      ],
      "stateMutability": "view",
      "type": "function",
      "constant": true
    },
    {
      "inputs": [
        {
          "internalType": "uint256",
          "name": "_paperId",
          "type": "uint256"
        }
      ],
      "name": "verifyPaper",
      "outputs": [],
      "stateMutability": "nonpayable",
      "type": "function"
    },
    {
      "inputs": [
        {
          "internalType": "uint256",
          "name": "_paperId",
          "type": "uint256"
        }
      ],
      "name": "isExamTimeReached",
      "outputs": [
        {
          "internalType": "bool",
          "name": "",
          "type": "bool"
        }
      ],
      "stateMutability": "view",
      "type": "function",
      "constant": true
    },
    {
      "inputs": [],
      "name": "getTotalPapers",
      "outputs": [
        {
          "internalType": "uint256",
          "name": "",
          "type": "uint256"
        }
      ],
      "stateMutability": "view",
      "type": "function",
      "constant": true
    },
    {
      "inputs": [
        {
          "internalType": "string",
          "name": "_documentHash",
          "type": "string"
        }
      ],
      "name": "doesHashExist",
      "outputs": [
        {
          "internalType": "bool",
          "name": "",
          "type": "bool"
        }
      ],
      "stateMutability": "view",
      "type": "function",
      "constant": true
    }
  ],
  "bytecode": "0x6080604052600060015534801561001557600080fd5b50611266806100256000396000f3fe608060405234801561001057600080fd5b50600436106100885760003560e01c806361b641581161005b57806361b64158146101055780636eddf32314610126578063a56c2cb91461012e578063d3ef7f671461013757600080fd5b8063055a9be81461008d57806305f59439146100a257806307993f04146100ca5780635e775a27146100f2575b600080fd5b6100a061009b366004610d72565b61014a565b005b6100b56100b0366004610e2e565b610246565b60405190151581526020015b60405180910390f35b6100dd6100d8366004610d72565b610271565b6040516100c199989796959493929190610ebb565b6100dd610100366004610d72565b61062c565b610118610113366004610f55565b61092d565b6040519081526020016100c1565b600154610118565b61011860015481565b6100b5610145366004610d72565b610d2a565b60008111801561015c57506001548111155b6101815760405162461bcd60e51b81526004016101789061102f565b60405180910390fd5b600081815260208190526040902060040154600160a01b900460ff16156101e35760405162461bcd60e51b815260206004820152601660248201527514185c195c88185b1c9958591e481d995c9a599a595960521b6044820152606401610178565b60008181526020819052604090819020600401805460ff60a01b1916600160a01b17905551339082907f505fb8a09d292e96afcaa7c15eaf4f15d36dafdf31fd8ee565331d089552f5d69061023b9042815260200190565b60405180910390a350565b60006002826040516102589190611059565b9081526040519081900360200190205460ff1692915050565b606080606060008060008060608060008a11801561029157506001548a11155b6102ad5760405162461bcd60e51b81526004016101789061102f565b60008a815260208190526040808220815161012081019092528054829082906102d590611075565b80601f016020809104026020016040519081016040528092919081815260200182805461030190611075565b801561034e5780601f106103235761010080835404028352916020019161034e565b820191906000526020600020905b81548152906001019060200180831161033157829003601f168201915b5050505050815260200160018201805461036790611075565b80601f016020809104026020016040519081016040528092919081815260200182805461039390611075565b80156103e05780601f106103b5576101008083540402835291602001916103e0565b820191906000526020600020905b8154815290600101906020018083116103c357829003601f168201915b505050505081526020016002820180546103f990611075565b80601f016020809104026020016040519081016040528092919081815260200182805461042590611075565b80156104725780601f1061044757610100808354040283529160200191610472565b820191906000526020600020905b81548152906001019060200180831161045557829003601f168201915b50505091835250506003820154602082015260048201546001600160a01b0381166040830152600160a01b900460ff16151560608201526005820154608082015260068201805460a0909201916104c890611075565b80601f01602080910402602001604051908101604052809291908181526020018280546104f490611075565b80156105415780601f1061051657610100808354040283529160200191610541565b820191906000526020600020905b81548152906001019060200180831161052457829003601f168201915b5050505050815260200160078201805461055a90611075565b80601f016020809104026020016040519081016040528092919081815260200182805461058690611075565b80156105d35780601f106105a8576101008083540402835291602001916105d3565b820191906000526020600020905b8154815290600101906020018083116105b657829003601f168201915b5050505050815250509050806000015181602001518260400151836060015184608001518560a001518660c001518760e00151886101000151995099509950995099509950995099509950509193959799909294969850565b60006020819052908152604090208054819061064790611075565b80601f016020809104026020016040519081016040528092919081815260200182805461067390611075565b80156106c05780601f10610695576101008083540402835291602001916106c0565b820191906000526020600020905b8154815290600101906020018083116106a357829003601f168201915b5050505050908060010180546106d590611075565b80601f016020809104026020016040519081016040528092919081815260200182805461070190611075565b801561074e5780601f106107235761010080835404028352916020019161074e565b820191906000526020600020905b81548152906001019060200180831161073157829003601f168201915b50505050509080600201805461076390611075565b80601f016020809104026020016040519081016040528092919081815260200182805461078f90611075565b80156107dc5780601f106107b1576101008083540402835291602001916107dc565b820191906000526020600020905b8154815290600101906020018083116107bf57829003601f168201915b50505050600383015460048401546005850154600686018054959693956001600160a01b0384169550600160a01b90930460ff1693919261081c90611075565b80601f016020809104026020016040519081016040528092919081815260200182805461084890611075565b80156108955780601f1061086a57610100808354040283529160200191610895565b820191906000526020600020905b81548152906001019060200180831161087857829003601f168201915b5050505050908060070180546108aa90611075565b80601f01602080910402602001604051908101604052809291908181526020018280546108d690611075565b80156109235780601f106108f857610100808354040283529160200191610923565b820191906000526020600020905b81548152906001019060200180831161090657829003601f168201915b5050505050905089565b60008087511161097f5760405162461bcd60e51b815260206004820152601a60248201527f436f6c6c6567652049442063616e6e6f7420626520656d7074790000000000006044820152606401610178565b60008651116109d05760405162461bcd60e51b815260206004820152601c60248201527f5375626a65637420636f64652063616e6e6f7420626520656d707479000000006044820152606401610178565b6000855111610a215760405162461bcd60e51b815260206004820152601d60248201527f446f63756d656e7420686173682063616e6e6f7420626520656d7074790000006044820152606401610178565b428411610a705760405162461bcd60e51b815260206004820152601f60248201527f4578616d2064617465206d75737420626520696e2074686520667574757265006044820152606401610178565b6000835111610acb5760405162461bcd60e51b815260206004820152602160248201527f456e6372797074656420414553206b65792063616e6e6f7420626520656d70746044820152607960f81b6064820152608401610178565b6000825111610b1c5760405162461bcd60e51b815260206004820152601f60248201527f5072696e636970616c20656d61696c2063616e6e6f7420626520656d707479006044820152606401610178565b600285604051610b2c9190611059565b9081526040519081900360200190205460ff1615610b8c5760405162461bcd60e51b815260206004820152601c60248201527f446f63756d656e74206861736820616c726561647920657869737473000000006044820152606401610178565b60018054906000610b9c836110af565b909155505060408051610120810182528881526020808201899052818301889052426060830152336080830152600060a0830181905260c0830188905260e0830187905261010083018690526001548152908190529190912081518190610c039082611125565b5060208201516001820190610c189082611125565b5060408201516002820190610c2d9082611125565b5060608201516003820155608082015160048201805460a08501511515600160a01b026001600160a81b03199091166001600160a01b039093169290921791909117905560c0820151600582015560e08201516006820190610c8f9082611125565b506101008201516007820190610ca59082611125565b509050506001600286604051610cbb9190611059565b908152604051908190036020018120805492151560ff199093169290921790915560015433917f48679a5c7f7501de182590aceec88913b2d542af23b8270582eb3e9e7b2acb5790610d149089908c908c908b906111e5565b60405180910390a3506001549695505050505050565b60008082118015610d3d57506001548211155b610d595760405162461bcd60e51b81526004016101789061102f565b5060009081526020819052604090206005015442101590565b600060208284031215610d8457600080fd5b5035919050565b634e487b7160e01b600052604160045260246000fd5b600082601f830112610db257600080fd5b813567ffffffffffffffff80821115610dcd57610dcd610d8b565b604051601f8301601f19908116603f01168101908282118183101715610df557610df5610d8b565b81604052838152866020858801011115610e0e57600080fd5b836020870160208301376000602085830101528094505050505092915050565b600060208284031215610e4057600080fd5b813567ffffffffffffffff811115610e5757600080fd5b610e6384828501610da1565b949350505050565b60005b83811015610e86578181015183820152602001610e6e565b50506000910152565b60008151808452610ea7816020860160208601610e6b565b601f01601f19169290920160200192915050565b6000610120808352610ecf8184018d610e8f565b90508281036020840152610ee3818c610e8f565b90508281036040840152610ef7818b610e8f565b606084018a90526001600160a01b038916608085015287151560a085015260c0840187905283810360e08501529050610f308186610e8f565b9050828103610100840152610f458185610e8f565b9c9b505050505050505050505050565b60008060008060008060c08789031215610f6e57600080fd5b863567ffffffffffffffff80821115610f8657600080fd5b610f928a838b01610da1565b97506020890135915080821115610fa857600080fd5b610fb48a838b01610da1565b96506040890135915080821115610fca57600080fd5b610fd68a838b01610da1565b9550606089013594506080890135915080821115610ff357600080fd5b610fff8a838b01610da1565b935060a089013591508082111561101557600080fd5b5061102289828a01610da1565b9150509295509295509295565b60208082526010908201526f125b9d985b1a59081c185c195c88125160821b604082015260600190565b6000825161106b818460208701610e6b565b9190910192915050565b600181811c9082168061108957607f821691505b6020821081036110a957634e487b7160e01b600052602260045260246000fd5b50919050565b6000600182016110cf57634e487b7160e01b600052601160045260246000fd5b5060010190565b601f82111561112057600081815260208120601f850160051c810160208610156110fd5750805b601f850160051c820191505b8181101561111c57828155600101611109565b5050505b505050565b815167ffffffffffffffff81111561113f5761113f610d8b565b6111538161114d8454611075565b846110d6565b602080601f83116001811461118857600084156111705750858301515b600019600386901b1c1916600185901b17855561111c565b600085815260208120601f198616915b828110156111b757888601518255948401946001909101908401611198565b50858210156111d55787850151600019600388901b60f8161c191681555b5050505050600190811b01905550565b6080815260006111f86080830187610e8f565b828103602084015261120a8187610e8f565b9050828103604084015261121e8186610e8f565b9150508260608301529594505050505056fea2646970667358221220f5e657d8d464c094047b72fa2667c9f917ae86e45773301f9720d4e425a99ec464736f6c63430008130033",
  "immutableReferences": {},
  "source": "// SPDX-License-Identifier: MIT\npragma solidity ^0.8.0;\n\n/**\n * @title SecureExamPaper\n * @dev Smart contract for secure exam paper storage with encryption and time-lock\n */\ncontract SecureExamPaper {\n    \n    // Struct to store exam paper metadata\n    struct ExamPaper {\n        string collegeId;           // College identifier\n        string subjectCode;         // Subject code\n        string documentHash;        // SHA-256 hash of encrypted document\n        uint256 timestamp;          // Upload timestamp\n        address owner;              // Admin who uploaded\n        bool verified;              // Verification status\n        uint256 examDateTime;       // Scheduled exam date/time (Unix timestamp)\n        string encryptedAESKey;     // RSA-encrypted AES key\n        string principalEmail;      // Principal's email\n    }\n    \n    // Mapping from paper ID to ExamPaper\n    mapping(uint256 => ExamPaper) public papers;\n    \n    // Auto-incrementing paper ID counter\n    uint256 public paperCount = 0;\n    \n    // Mapping to prevent duplicate hashes\n    mapping(string => bool) private hashExists;\n    \n    // Events for tracking\n    event PaperStored(\n        uint256 indexed paperId,\n        string documentHash,\n        string collegeId,\n        string subjectCode,\n        uint256 examDateTime,\n        address indexed owner\n    );\n    \n    event PaperVerified(\n        uint256 indexed paperId,\n        address indexed verifier,\n        uint256 timestamp\n    );\n    \n    /**\n     * @dev Store a new exam paper on the blockchain\n     * @param _collegeId College identifier\n     * @param _subjectCode Subject code\n     * @param _documentHash SHA-256 hash of the encrypted document\n     * @param _examDateTime Scheduled exam date/time\n     * @param _encryptedAESKey RSA-encrypted AES key\n     * @param _principalEmail Principal's email address\n     * @return paperId The ID of the stored paper\n     */\n    function storePaper(\n        string memory _collegeId,\n        string memory _subjectCode,\n        string memory _documentHash,\n        uint256 _examDateTime,\n        string memory _encryptedAESKey,\n        string memory _principalEmail\n    ) public returns (uint256) {\n        // Validate inputs\n        require(bytes(_collegeId).length > 0, \"College ID cannot be empty\");\n        require(bytes(_subjectCode).length > 0, \"Subject code cannot be empty\");\n        require(bytes(_documentHash).length > 0, \"Document hash cannot be empty\");\n        require(_examDateTime > block.timestamp, \"Exam date must be in the future\");\n        require(bytes(_encryptedAESKey).length > 0, \"Encrypted AES key cannot be empty\");\n        require(bytes(_principalEmail).length > 0, \"Principal email cannot be empty\");\n        \n        // Check for duplicate hash\n        require(!hashExists[_documentHash], \"Document hash already exists\");\n        \n        // Increment paper count\n        paperCount++;\n        \n        // Create new exam paper\n        papers[paperCount] = ExamPaper({\n            collegeId: _collegeId,\n            subjectCode: _subjectCode,\n            documentHash: _documentHash,\n            timestamp: block.timestamp,\n            owner: msg.sender,\n            verified: false,\n            examDateTime: _examDateTime,\n            encryptedAESKey: _encryptedAESKey,\n            principalEmail: _principalEmail\n        });\n        \n        // Mark hash as used\n        hashExists[_documentHash] = true;\n        \n        // Emit event\n        emit PaperStored(\n            paperCount,\n            _documentHash,\n            _collegeId,\n            _subjectCode,\n            _examDateTime,\n            msg.sender\n        );\n        \n        return paperCount;\n    }\n    \n    /**\n     * @dev Get exam paper details by ID\n     * @param _paperId The ID of the paper to retrieve\n     * @return collegeId College identifier\n     * @return subjectCode Subject code\n     * @return documentHash Document hash\n     * @return timestamp Upload timestamp\n     * @return owner Owner address\n     * @return verified Verification status\n     * @return examDateTime Exam date/time\n     * @return encryptedAESKey Encrypted AES key\n     * @return principalEmail Principal email\n     */\n    function getPaper(uint256 _paperId) public view returns (\n        string memory collegeId,\n        string memory subjectCode,\n        string memory documentHash,\n        uint256 timestamp,\n        address owner,\n        bool verified,\n        uint256 examDateTime,\n        string memory encryptedAESKey,\n        string memory principalEmail\n    ) {\n        require(_paperId > 0 && _paperId <= paperCount, \"Invalid paper ID\");\n        \n        ExamPaper memory paper = papers[_paperId];\n        \n        return (\n            paper.collegeId,\n            paper.subjectCode,\n            paper.documentHash,\n            paper.timestamp,\n            paper.owner,\n            paper.verified,\n            paper.examDateTime,\n            paper.encryptedAESKey,\n            paper.principalEmail\n        );\n    }\n    \n    /**\n     * @dev Verify a paper (called after successful decryption and validation)\n     * @param _paperId The ID of the paper to verify\n     */\n    function verifyPaper(uint256 _paperId) public {\n        require(_paperId > 0 && _paperId <= paperCount, \"Invalid paper ID\");\n        require(!papers[_paperId].verified, \"Paper already verified\");\n        \n        papers[_paperId].verified = true;\n        \n        emit PaperVerified(_paperId, msg.sender, block.timestamp);\n    }\n    \n    /**\n     * @dev Check if exam time has arrived (time-lock mechanism)\n     * @param _paperId The ID of the paper to check\n     * @return bool True if exam time has arrived\n     */\n    function isExamTimeReached(uint256 _paperId) public view returns (bool) {\n        require(_paperId > 0 && _paperId <= paperCount, \"Invalid paper ID\");\n        return block.timestamp >= papers[_paperId].examDateTime;\n    }\n    \n    /**\n     * @dev Get the total number of papers stored\n     * @return uint256 Total paper count\n     */\n    function getTotalPapers() public view returns (uint256) {\n        return paperCount;\n    }\n    \n    /**\n     * @dev Check if a document hash already exists\n     * @param _documentHash The hash to check\n     * @return bool True if hash exists\n     */\n    function doesHashExist(string memory _documentHash) public view returns (bool) {\n        return hashExists[_documentHash];\n    }\n}\n",
  "sourcePath": "/home/thaimozhi2005/exam paper blockchain/blockchain/contracts/SecureExamPaper.sol",
  "compiler": {
    "name": "solc",
    "version": "0.8.19+commit.7dd6d404.Emscripten.clang"
  },
  "schemaVersion": "3.4.16",
  "updatedAt": "2026-01-29T12:58:31.998Z",
  "networkType": "ethereum",
  "devdoc": {
    "details": "Smart contract for secure exam paper storage with encryption and time-lock",
    "kind": "dev",
    "methods": {
      "doesHashExist(string)": {
        "details": "Check if a document hash already exists",
        "params": {
          "_documentHash": "The hash to check"
        },
        "returns": {
          "_0": "bool True if hash exists"
        }
      },
      "getPaper(uint256)": {
        "details": "Get exam paper details by ID",
        "params": {
          "_paperId": "The ID of the paper to retrieve"
        },
        "returns": {
          "collegeId": "College identifier",
          "documentHash": "Document hash",
          "encryptedAESKey": "Encrypted AES key",
          "examDateTime": "Exam date/time",
          "owner": "Owner address",
          "principalEmail": "Principal email",
          "subjectCode": "Subject code",
          "timestamp": "Upload timestamp",
          "verified": "Verification status"
        }
      },
      "getTotalPapers()": {
        "details": "Get the total number of papers stored",
        "returns": {
          "_0": "uint256 Total paper count"
        }
      },
      "isExamTimeReached(uint256)": {
        "details": "Check if exam time has arrived (time-lock mechanism)",
        "params": {
          "_paperId": "The ID of the paper to check"
        },
        "returns": {
          "_0": "bool True if exam time has arrived"
        }
      },
      "storePaper(string,string,string,uint256,string,string)": {
        "details": "Store a new exam paper on the blockchain",
        "params": {
          "_collegeId": "College identifier",
          "_documentHash": "SHA-256 hash of the encrypted document",
          "_encryptedAESKey": "RSA-encrypted AES key",
          "_examDateTime": "Scheduled exam date/time",
          "_principalEmail": "Principal's email address",
          "_subjectCode": "Subject code"
        },
        "returns": {
          "_0": "paperId The ID of the stored paper"
        }
      },
      "verifyPaper(uint256)": {
        "details": "Verify a paper (called after successful decryption and validation)",
        "params": {
          "_paperId": "The ID of the paper to verify"
        }
      }
    },
    "title": "SecureExamPaper",
    "version": 1
  },
  "userdoc": {
    "kind": "user",
    "methods": {},
    "version": 1
  }
}